{
  "contractName": "Voting",
  "abi": [
    {
      "anonymous": false,
      "inputs": [
        {
          "indexed": true,
          "internalType": "address",
          "name": "previousOwner",
          "type": "address"
        },
        {
          "indexed": true,
          "internalType": "address",
          "name": "newOwner",
          "type": "address"
        }
      ],
      "name": "OwnershipTransferred",
      "type": "event"
    },
    {
      "anonymous": false,
      "inputs": [
        {
          "indexed": false,
          "internalType": "uint256",
          "name": "proposalId",
          "type": "uint256"
        }
      ],
      "name": "ProposalRegistered",
      "type": "event"
    },
    {
      "anonymous": false,
      "inputs": [
        {
          "indexed": false,
          "internalType": "address",
          "name": "voter",
          "type": "address"
        },
        {
          "indexed": false,
          "internalType": "uint256",
          "name": "proposalId",
          "type": "uint256"
        }
      ],
      "name": "Voted",
      "type": "event"
    },
    {
      "anonymous": false,
      "inputs": [
        {
          "indexed": false,
          "internalType": "address",
          "name": "voterAddress",
          "type": "address"
        }
      ],
      "name": "VoterRegistered",
      "type": "event"
    },
    {
      "anonymous": false,
      "inputs": [
        {
          "indexed": false,
          "internalType": "enum Voting.WorkflowStatus",
          "name": "previousStatus",
          "type": "uint8"
        },
        {
          "indexed": false,
          "internalType": "enum Voting.WorkflowStatus",
          "name": "newStatus",
          "type": "uint8"
        }
      ],
      "name": "WorkflowStatusChange",
      "type": "event"
    },
    {
      "inputs": [
        {
          "internalType": "uint256",
          "name": "",
          "type": "uint256"
        }
      ],
      "name": "addressUsed",
      "outputs": [
        {
          "internalType": "address",
          "name": "",
          "type": "address"
        }
      ],
      "stateMutability": "view",
      "type": "function",
      "constant": true
    },
    {
      "inputs": [],
      "name": "owner",
      "outputs": [
        {
          "internalType": "address",
          "name": "",
          "type": "address"
        }
      ],
      "stateMutability": "view",
      "type": "function",
      "constant": true
    },
    {
      "inputs": [
        {
          "internalType": "uint256",
          "name": "",
          "type": "uint256"
        }
      ],
      "name": "proposals",
      "outputs": [
        {
          "internalType": "string",
          "name": "description",
          "type": "string"
        },
        {
          "internalType": "uint256",
          "name": "voteCount",
          "type": "uint256"
        }
      ],
      "stateMutability": "view",
      "type": "function",
      "constant": true
    },
    {
      "inputs": [],
      "name": "renounceOwnership",
      "outputs": [],
      "stateMutability": "nonpayable",
      "type": "function"
    },
    {
      "inputs": [],
      "name": "status",
      "outputs": [
        {
          "internalType": "enum Voting.WorkflowStatus",
          "name": "",
          "type": "uint8"
        }
      ],
      "stateMutability": "view",
      "type": "function",
      "constant": true
    },
    {
      "inputs": [
        {
          "internalType": "address",
          "name": "newOwner",
          "type": "address"
        }
      ],
      "name": "transferOwnership",
      "outputs": [],
      "stateMutability": "nonpayable",
      "type": "function"
    },
    {
      "inputs": [],
      "name": "winningProposalId",
      "outputs": [
        {
          "internalType": "uint256",
          "name": "",
          "type": "uint256"
        }
      ],
      "stateMutability": "view",
      "type": "function",
      "constant": true
    },
    {
      "inputs": [
        {
          "internalType": "address",
          "name": "_address",
          "type": "address"
        }
      ],
      "name": "whitelist",
      "outputs": [],
      "stateMutability": "nonpayable",
      "type": "function"
    },
    {
      "inputs": [],
      "name": "getWhitelist",
      "outputs": [
        {
          "internalType": "address[]",
          "name": "",
          "type": "address[]"
        }
      ],
      "stateMutability": "view",
      "type": "function",
      "constant": true
    },
    {
      "inputs": [],
      "name": "proposalsReset",
      "outputs": [],
      "stateMutability": "nonpayable",
      "type": "function"
    },
    {
      "inputs": [],
      "name": "whitelistReset",
      "outputs": [],
      "stateMutability": "nonpayable",
      "type": "function"
    },
    {
      "inputs": [
        {
          "internalType": "uint256",
          "name": "_proposalId",
          "type": "uint256"
        }
      ],
      "name": "voterRegister",
      "outputs": [],
      "stateMutability": "nonpayable",
      "type": "function"
    },
    {
      "inputs": [],
      "name": "getWinningProposal",
      "outputs": [
        {
          "internalType": "string",
          "name": "",
          "type": "string"
        }
      ],
      "stateMutability": "view",
      "type": "function",
      "constant": true
    },
    {
      "inputs": [
        {
          "internalType": "string",
          "name": "_description",
          "type": "string"
        }
      ],
      "name": "proposalRegister",
      "outputs": [],
      "stateMutability": "nonpayable",
      "type": "function"
    },
    {
      "inputs": [],
      "name": "getProposals",
      "outputs": [
        {
          "components": [
            {
              "internalType": "string",
              "name": "description",
              "type": "string"
            },
            {
              "internalType": "uint256",
              "name": "voteCount",
              "type": "uint256"
            }
          ],
          "internalType": "struct Voting.Proposal[]",
          "name": "",
          "type": "tuple[]"
        }
      ],
      "stateMutability": "view",
      "type": "function",
      "constant": true
    },
    {
      "inputs": [],
      "name": "updateStatus",
      "outputs": [],
      "stateMutability": "nonpayable",
      "type": "function"
    },
    {
      "inputs": [],
      "name": "getStatus",
      "outputs": [
        {
          "internalType": "enum Voting.WorkflowStatus",
          "name": "",
          "type": "uint8"
        }
      ],
      "stateMutability": "view",
      "type": "function",
      "constant": true
    }
  ],
  "bytecode": "0x6080604052600180556000600560006101000a81548160ff0219169083600581111562000031576200003062000136565b5b02179055503480156200004357600080fd5b5062000064620000586200006a60201b60201c565b6200007260201b60201c565b62000165565b600033905090565b60008060009054906101000a900473ffffffffffffffffffffffffffffffffffffffff169050816000806101000a81548173ffffffffffffffffffffffffffffffffffffffff021916908373ffffffffffffffffffffffffffffffffffffffff1602179055508173ffffffffffffffffffffffffffffffffffffffff168173ffffffffffffffffffffffffffffffffffffffff167f8be0079c531659141344cd1fd0a4f28419497f9722a3daafe3b4186f6b6457e060405160405180910390a35050565b7f4e487b7100000000000000000000000000000000000000000000000000000000600052602160045260246000fd5b611e4d80620001756000396000f3fe608060405234801561001057600080fd5b506004361061010b5760003560e01c8063715018a6116100a2578063c143bb2d11610071578063c143bb2d1461024b578063c64963c514610267578063d01f63f514610285578063e8f7d8f6146102a3578063f2fde38b146102bf5761010b565b8063715018a6146101e95780638da5cb5b146101f35780639b19251a14610211578063a51346201461022d5761010b565b806353f40068116100de57806353f40068146101875780635d738fb7146101915780635f60f485146101c157806362564c48146101cb5761010b565b8063013cf08b14610110578063200d2ed214610141578063424aade71461015f5780634e69d56014610169575b600080fd5b61012a600480360381019061012591906114e6565b6102db565b6040516101389291906115bb565b60405180910390f35b610149610397565b6040516101569190611662565b60405180910390f35b6101676103aa565b005b610171610586565b60405161017e9190611662565b60405180910390f35b61018f61059d565b005b6101ab60048036038101906101a691906114e6565b610669565b6040516101b891906116be565b60405180910390f35b6101c96106a8565b005b6101d36108c3565b6040516101e09190611831565b60405180910390f35b6101f16109be565b005b6101fb610a46565b60405161020891906116be565b60405180910390f35b61022b6004803603810190610226919061187f565b610a6f565b005b610235610c76565b60405161024291906118ac565b60405180910390f35b61026560048036038101906102609190611a03565b610d2d565b005b61026f610e84565b60405161027c9190611a4c565b60405180910390f35b61028d610e8a565b60405161029a9190611b25565b60405180910390f35b6102bd60048036038101906102b891906114e6565b610f18565b005b6102d960048036038101906102d4919061187f565b611181565b005b600481815481106102eb57600080fd5b906000526020600020906002020160009150905080600001805461030e90611b76565b80601f016020809104026020016040519081016040528092919081815260200182805461033a90611b76565b80156103875780601f1061035c57610100808354040283529160200191610387565b820191906000526020600020905b81548152906001019060200180831161036a57829003601f168201915b5050505050908060010154905082565b600560009054906101000a900460ff1681565b6103b2611279565b73ffffffffffffffffffffffffffffffffffffffff166103d0610a46565b73ffffffffffffffffffffffffffffffffffffffff1614610426576040517f08c379a000000000000000000000000000000000000000000000000000000000815260040161041d90611bf4565b60405180910390fd5b6000600581111561043a576104396115eb565b5b600560009054906101000a900460ff16600581111561045c5761045b6115eb565b5b1461046657600080fd5b60005b600380549050811015610575576040518060600160405280600015158152602001600015158152602001600081525060026000600384815481106104b0576104af611c14565b5b9060005260206000200160009054906101000a900473ffffffffffffffffffffffffffffffffffffffff1673ffffffffffffffffffffffffffffffffffffffff1673ffffffffffffffffffffffffffffffffffffffff16815260200190815260200160002060008201518160000160006101000a81548160ff02191690831515021790555060208201518160000160016101000a81548160ff02191690831515021790555060408201518160010155905050808061056d90611c72565b915050610469565b50600360006105849190611345565b565b6000600560009054906101000a900460ff16905090565b6105a5611279565b73ffffffffffffffffffffffffffffffffffffffff166105c3610a46565b73ffffffffffffffffffffffffffffffffffffffff1614610619576040517f08c379a000000000000000000000000000000000000000000000000000000000815260040161061090611bf4565b60405180910390fd5b6000600581111561062d5761062c6115eb565b5b600560009054906101000a900460ff16600581111561064f5761064e6115eb565b5b1461065957600080fd5b600460006106679190611366565b565b6003818154811061067957600080fd5b906000526020600020016000915054906101000a900473ffffffffffffffffffffffffffffffffffffffff1681565b6106b0611279565b73ffffffffffffffffffffffffffffffffffffffff166106ce610a46565b73ffffffffffffffffffffffffffffffffffffffff1614610724576040517f08c379a000000000000000000000000000000000000000000000000000000000815260040161071b90611bf4565b60405180910390fd5b60058060009054906101000a900460ff166005811115610747576107466115eb565b5b60ff1614610797576001600560009054906101000a900460ff166005811115610773576107726115eb565b5b61077d9190611cc8565b60ff166005811115610792576107916115eb565b5b61079a565b60005b600560006101000a81548160ff021916908360058111156107be576107bd6115eb565b5b0217905550600080600560009054906101000a900460ff1660058111156107e8576107e76115eb565b5b14610820576001600560009054906101000a900460ff166005811115610811576108106115eb565b5b61081b9190611cff565b610823565b60055b90506000600560009054906101000a900460ff166005811115610849576108486115eb565b5b60ff1614156108635761085a61059d565b6108626103aa565b5b7f0a97a4ee45751e2abf3e4fc8946939630b11b371ea8ae39ccdc3056e98f5cc3f8160ff16600581111561089a576108996115eb565b5b600560009054906101000a900460ff166040516108b8929190611d33565b60405180910390a150565b60606004805480602002602001604051908101604052809291908181526020016000905b828210156109b5578382906000526020600020906002020160405180604001604052908160008201805461091a90611b76565b80601f016020809104026020016040519081016040528092919081815260200182805461094690611b76565b80156109935780601f1061096857610100808354040283529160200191610993565b820191906000526020600020905b81548152906001019060200180831161097657829003601f168201915b50505050508152602001600182015481525050815260200190600101906108e7565b50505050905090565b6109c6611279565b73ffffffffffffffffffffffffffffffffffffffff166109e4610a46565b73ffffffffffffffffffffffffffffffffffffffff1614610a3a576040517f08c379a0000000000000000000000000000000000000000000000000000000008152600401610a3190611bf4565b60405180910390fd5b610a446000611281565b565b60008060009054906101000a900473ffffffffffffffffffffffffffffffffffffffff16905090565b610a77611279565b73ffffffffffffffffffffffffffffffffffffffff16610a95610a46565b73ffffffffffffffffffffffffffffffffffffffff1614610aeb576040517f08c379a0000000000000000000000000000000000000000000000000000000008152600401610ae290611bf4565b60405180910390fd5b60006005811115610aff57610afe6115eb565b5b600560009054906101000a900460ff166005811115610b2157610b206115eb565b5b14610b2b57600080fd5b60405180606001604052806001151581526020016000151581526020016000815250600260008373ffffffffffffffffffffffffffffffffffffffff1673ffffffffffffffffffffffffffffffffffffffff16815260200190815260200160002060008201518160000160006101000a81548160ff02191690831515021790555060208201518160000160016101000a81548160ff021916908315150217905550604082015181600101559050506003819080600181540180825580915050600190039060005260206000200160009091909190916101000a81548173ffffffffffffffffffffffffffffffffffffffff021916908373ffffffffffffffffffffffffffffffffffffffff1602179055507fb6be2187d059cc2a55fe29e0e503b566e1e0f8c8780096e185429350acffd3dd81604051610c6b91906116be565b60405180910390a150565b6060600460065481548110610c8e57610c8d611c14565b5b90600052602060002090600202016000018054610caa90611b76565b80601f0160208091040260200160405190810160405280929190818152602001828054610cd690611b76565b8015610d235780601f10610cf857610100808354040283529160200191610d23565b820191906000526020600020905b815481529060010190602001808311610d0657829003601f168201915b5050505050905090565b33600260008273ffffffffffffffffffffffffffffffffffffffff1673ffffffffffffffffffffffffffffffffffffffff16815260200190815260200160002060000160009054906101000a900460ff16610d8757600080fd5b60016005811115610d9b57610d9a6115eb565b5b600560009054906101000a900460ff166005811115610dbd57610dbc6115eb565b5b14610dc757600080fd5b61271060048054905010610dda57600080fd5b60046040518060400160405280848152602001600081525090806001815401808255809150506001900390600052602060002090600202016000909190919091506000820151816000019080519060200190610e3792919061138a565b506020820151816001015550507f92e393e9b54e2f801d3ea4beb0c5e71a21cc34a5d34b77d0fb8a3aa1650dc18f600480549050604051610e789190611a4c565b60405180910390a15050565b60065481565b60606003805480602002602001604051908101604052809291908181526020018280548015610f0e57602002820191906000526020600020905b8160009054906101000a900473ffffffffffffffffffffffffffffffffffffffff1673ffffffffffffffffffffffffffffffffffffffff1681526020019060010190808311610ec4575b5050505050905090565b33600260008273ffffffffffffffffffffffffffffffffffffffff1673ffffffffffffffffffffffffffffffffffffffff16815260200190815260200160002060000160009054906101000a900460ff16610f7257600080fd5b60036005811115610f8657610f856115eb565b5b600560009054906101000a900460ff166005811115610fa857610fa76115eb565b5b1480156110025750600260003373ffffffffffffffffffffffffffffffffffffffff1673ffffffffffffffffffffffffffffffffffffffff16815260200190815260200160002060000160019054906101000a900460ff16155b61100b57600080fd5b6001600260003373ffffffffffffffffffffffffffffffffffffffff1673ffffffffffffffffffffffffffffffffffffffff16815260200190815260200160002060000160016101000a81548160ff02191690831515021790555081600260003373ffffffffffffffffffffffffffffffffffffffff1673ffffffffffffffffffffffffffffffffffffffff16815260200190815260200160002060010181905550600482815481106110c1576110c0611c14565b5b906000526020600020906002020160010160008154809291906110e390611c72565b91905055506004600654815481106110fe576110fd611c14565b5b9060005260206000209060020201600101546004838154811061112457611123611c14565b5b906000526020600020906002020160010154111561114457816006819055505b7f4d99b957a2bc29a30ebd96a7be8e68fe50a3c701db28a91436490b7d53870ca43383604051611175929190611d5c565b60405180910390a15050565b611189611279565b73ffffffffffffffffffffffffffffffffffffffff166111a7610a46565b73ffffffffffffffffffffffffffffffffffffffff16146111fd576040517f08c379a00000000000000000000000000000000000000000000000000000000081526004016111f490611bf4565b60405180910390fd5b600073ffffffffffffffffffffffffffffffffffffffff168173ffffffffffffffffffffffffffffffffffffffff16141561126d576040517f08c379a000000000000000000000000000000000000000000000000000000000815260040161126490611df7565b60405180910390fd5b61127681611281565b50565b600033905090565b60008060009054906101000a900473ffffffffffffffffffffffffffffffffffffffff169050816000806101000a81548173ffffffffffffffffffffffffffffffffffffffff021916908373ffffffffffffffffffffffffffffffffffffffff1602179055508173ffffffffffffffffffffffffffffffffffffffff168173ffffffffffffffffffffffffffffffffffffffff167f8be0079c531659141344cd1fd0a4f28419497f9722a3daafe3b4186f6b6457e060405160405180910390a35050565b50805460008255906000526020600020908101906113639190611410565b50565b5080546000825560020290600052602060002090810190611387919061142d565b50565b82805461139690611b76565b90600052602060002090601f0160209004810192826113b857600085556113ff565b82601f106113d157805160ff19168380011785556113ff565b828001600101855582156113ff579182015b828111156113fe5782518255916020019190600101906113e3565b5b50905061140c9190611410565b5090565b5b80821115611429576000816000905550600101611411565b5090565b5b808211156114585760008082016000611447919061145c565b60018201600090555060020161142e565b5090565b50805461146890611b76565b6000825580601f1061147a5750611499565b601f0160209004906000526020600020908101906114989190611410565b5b50565b6000604051905090565b600080fd5b600080fd5b6000819050919050565b6114c3816114b0565b81146114ce57600080fd5b50565b6000813590506114e0816114ba565b92915050565b6000602082840312156114fc576114fb6114a6565b5b600061150a848285016114d1565b91505092915050565b600081519050919050565b600082825260208201905092915050565b60005b8381101561154d578082015181840152602081019050611532565b8381111561155c576000848401525b50505050565b6000601f19601f8301169050919050565b600061157e82611513565b611588818561151e565b935061159881856020860161152f565b6115a181611562565b840191505092915050565b6115b5816114b0565b82525050565b600060408201905081810360008301526115d58185611573565b90506115e460208301846115ac565b9392505050565b7f4e487b7100000000000000000000000000000000000000000000000000000000600052602160045260246000fd5b6006811061162b5761162a6115eb565b5b50565b600081905061163c8261161a565b919050565b600061164c8261162e565b9050919050565b61165c81611641565b82525050565b60006020820190506116776000830184611653565b92915050565b600073ffffffffffffffffffffffffffffffffffffffff82169050919050565b60006116a88261167d565b9050919050565b6116b88161169d565b82525050565b60006020820190506116d360008301846116af565b92915050565b600081519050919050565b600082825260208201905092915050565b6000819050602082019050919050565b600082825260208201905092915050565b600061172182611513565b61172b8185611705565b935061173b81856020860161152f565b61174481611562565b840191505092915050565b611758816114b0565b82525050565b6000604083016000830151848203600086015261177b8282611716565b9150506020830151611790602086018261174f565b508091505092915050565b60006117a7838361175e565b905092915050565b6000602082019050919050565b60006117c7826116d9565b6117d181856116e4565b9350836020820285016117e3856116f5565b8060005b8581101561181f5784840389528151611800858261179b565b945061180b836117af565b925060208a019950506001810190506117e7565b50829750879550505050505092915050565b6000602082019050818103600083015261184b81846117bc565b905092915050565b61185c8161169d565b811461186757600080fd5b50565b60008135905061187981611853565b92915050565b600060208284031215611895576118946114a6565b5b60006118a38482850161186a565b91505092915050565b600060208201905081810360008301526118c68184611573565b905092915050565b600080fd5b600080fd5b7f4e487b7100000000000000000000000000000000000000000000000000000000600052604160045260246000fd5b61191082611562565b810181811067ffffffffffffffff8211171561192f5761192e6118d8565b5b80604052505050565b600061194261149c565b905061194e8282611907565b919050565b600067ffffffffffffffff82111561196e5761196d6118d8565b5b61197782611562565b9050602081019050919050565b82818337600083830152505050565b60006119a66119a184611953565b611938565b9050828152602081018484840111156119c2576119c16118d3565b5b6119cd848285611984565b509392505050565b600082601f8301126119ea576119e96118ce565b5b81356119fa848260208601611993565b91505092915050565b600060208284031215611a1957611a186114a6565b5b600082013567ffffffffffffffff811115611a3757611a366114ab565b5b611a43848285016119d5565b91505092915050565b6000602082019050611a6160008301846115ac565b92915050565b600081519050919050565b600082825260208201905092915050565b6000819050602082019050919050565b611a9c8161169d565b82525050565b6000611aae8383611a93565b60208301905092915050565b6000602082019050919050565b6000611ad282611a67565b611adc8185611a72565b9350611ae783611a83565b8060005b83811015611b18578151611aff8882611aa2565b9750611b0a83611aba565b925050600181019050611aeb565b5085935050505092915050565b60006020820190508181036000830152611b3f8184611ac7565b905092915050565b7f4e487b7100000000000000000000000000000000000000000000000000000000600052602260045260246000fd5b60006002820490506001821680611b8e57607f821691505b60208210811415611ba257611ba1611b47565b5b50919050565b7f4f776e61626c653a2063616c6c6572206973206e6f7420746865206f776e6572600082015250565b6000611bde60208361151e565b9150611be982611ba8565b602082019050919050565b60006020820190508181036000830152611c0d81611bd1565b9050919050565b7f4e487b7100000000000000000000000000000000000000000000000000000000600052603260045260246000fd5b7f4e487b7100000000000000000000000000000000000000000000000000000000600052601160045260246000fd5b6000611c7d826114b0565b91507fffffffffffffffffffffffffffffffffffffffffffffffffffffffffffffffff821415611cb057611caf611c43565b5b600182019050919050565b600060ff82169050919050565b6000611cd382611cbb565b9150611cde83611cbb565b92508260ff03821115611cf457611cf3611c43565b5b828201905092915050565b6000611d0a82611cbb565b9150611d1583611cbb565b925082821015611d2857611d27611c43565b5b828203905092915050565b6000604082019050611d486000830185611653565b611d556020830184611653565b9392505050565b6000604082019050611d7160008301856116af565b611d7e60208301846115ac565b9392505050565b7f4f776e61626c653a206e6577206f776e657220697320746865207a65726f206160008201527f6464726573730000000000000000000000000000000000000000000000000000602082015250565b6000611de160268361151e565b9150611dec82611d85565b604082019050919050565b60006020820190508181036000830152611e1081611dd4565b905091905056fea26469706673582212200b4c5b11efed034def4d24b30e44b80a6de1ab4d998d45cf96f1477033bdf9b564736f6c634300080b0033",
  "immutableReferences": {},
  "source": "// SPDX-License-Identifier: MIT\npragma solidity 0.8.11;\n\nimport \"@openzeppelin/contracts/access/Ownable.sol\";\n\ncontract Voting is Ownable {\n    struct Voter {\n        bool isRegistered;\n        bool hasVoted;\n        uint votedProposalId;\n    }\n\n    struct Proposal {\n        string description;\n        uint voteCount;\n    }\n   \n    enum WorkflowStatus {\n        RegisteringVoters,\n        ProposalsRegistrationStarted,\n        ProposalsRegistrationEnded,\n        VotingSessionStarted,\n        VotingSessionEnded,\n        VotesTallied\n    }\n   \n    uint proposalId = 1;\n    mapping(address => Voter) private _whitelist;\n    address[] public addressUsed;\n    Proposal[] public proposals;\n    WorkflowStatus public status = WorkflowStatus.RegisteringVoters;\n    uint public winningProposalId;\n   \n    event VoterRegistered(address voterAddress);\n    event ProposalRegistered(uint proposalId);\n    event Voted(address voter, uint proposalId);\n    event WorkflowStatusChange(WorkflowStatus previousStatus, WorkflowStatus newStatus);\n   \n    //modifier\n    modifier isRegisteringVotersStatus() {\n        require (status == WorkflowStatus.RegisteringVoters);\n        _;\n    }\n\n    modifier isRegisteredUser(address _address) {\n        require (_whitelist[_address].isRegistered);\n        _;\n    }\n   \n    //functions  \n    function whitelist(address _address) public onlyOwner isRegisteringVotersStatus {      \n        _whitelist[_address] = Voter(true, false, 0);\n        addressUsed.push(_address);\n\n        emit VoterRegistered(_address);\n    }\n\n    // ajout migrate pour deploy\n    function getWhitelist() public view returns(address[] memory) {\n       return addressUsed;\n    }\n\n    function proposalsReset() public onlyOwner isRegisteringVotersStatus{\n        delete proposals;\n    }\n\n    function whitelistReset() public onlyOwner isRegisteringVotersStatus{\n        for(uint i=0; i<addressUsed.length; i++){\n            _whitelist[addressUsed[i]] = Voter(false, false, 0);\n        }\n        delete addressUsed;\n    }\n   \n    function voterRegister(uint _proposalId) public isRegisteredUser(msg.sender) {\n        require (status == WorkflowStatus.VotingSessionStarted\n            && !_whitelist[msg.sender].hasVoted);\n        _whitelist[msg.sender].hasVoted = true;\n        _whitelist[msg.sender].votedProposalId = _proposalId;\n       \n        proposals[_proposalId].voteCount++;\n       \n        if (proposals[_proposalId].voteCount > proposals[winningProposalId].voteCount) {\n            winningProposalId = _proposalId;\n        }\n        emit Voted(msg.sender, _proposalId);\n    }\n\n    function getWinningProposal() public view returns(string memory) {\n        return proposals[winningProposalId].description;\n    }\n   \n    // Registering proposals of voters \n    function proposalRegister(string memory _description) public isRegisteredUser(msg.sender) {\n        require (status == WorkflowStatus.ProposalsRegistrationStarted);\n        require (proposals.length < 10000);\n        proposals.push(Proposal(_description, 0));\n        emit ProposalRegistered(proposals.length);\n    }\n\n    function getProposals() public view returns(Proposal[] memory) {\n       return proposals;\n    }\n   \n   // update status \n    function updateStatus() public onlyOwner {\n        status = uint8(status) == 5 ? WorkflowStatus.RegisteringVoters : WorkflowStatus(uint8(status)+1);\n        uint8 idPreviousStatus = uint(status) == 0 ? 5 : (uint8(status)-1);\n        if (uint8(status) == 0) {\n            proposalsReset();\n            whitelistReset();\n        }\n        emit WorkflowStatusChange(WorkflowStatus(idPreviousStatus), status);\n    }\n\n    function getStatus() public view returns(WorkflowStatus) {\n       return status;\n    }\n}",
  "sourcePath": "/home/kcolonna/blockchain/alyra-whitelist/contracts/Voting.sol",
  "compiler": {
    "name": "solc",
    "version": "0.8.11+commit.d7f03943.Emscripten.clang"
  },
  "schemaVersion": "3.4.6",
  "updatedAt": "2022-03-31T21:05:12.252Z",
  "networkType": "ethereum",
  "devdoc": {
    "kind": "dev",
    "methods": {
      "owner()": {
        "details": "Returns the address of the current owner."
      },
      "renounceOwnership()": {
        "details": "Leaves the contract without owner. It will not be possible to call `onlyOwner` functions anymore. Can only be called by the current owner. NOTE: Renouncing ownership will leave the contract without an owner, thereby removing any functionality that is only available to the owner."
      },
      "transferOwnership(address)": {
        "details": "Transfers ownership of the contract to a new account (`newOwner`). Can only be called by the current owner."
      }
    },
    "version": 1
  },
  "userdoc": {
    "kind": "user",
    "methods": {},
    "version": 1
  }
}