{
  "contractName": "Voting",
  "abi": [
    {
      "anonymous": false,
      "inputs": [
        {
          "indexed": true,
          "internalType": "address",
          "name": "previousOwner",
          "type": "address"
        },
        {
          "indexed": true,
          "internalType": "address",
          "name": "newOwner",
          "type": "address"
        }
      ],
      "name": "OwnershipTransferred",
      "type": "event"
    },
    {
      "anonymous": false,
      "inputs": [
        {
          "indexed": false,
          "internalType": "uint256",
          "name": "proposalId",
          "type": "uint256"
        }
      ],
      "name": "ProposalRegistered",
      "type": "event"
    },
    {
      "anonymous": false,
      "inputs": [
        {
          "indexed": false,
          "internalType": "address",
          "name": "voter",
          "type": "address"
        },
        {
          "indexed": false,
          "internalType": "uint256",
          "name": "proposalId",
          "type": "uint256"
        }
      ],
      "name": "Voted",
      "type": "event"
    },
    {
      "anonymous": false,
      "inputs": [
        {
          "indexed": false,
          "internalType": "address",
          "name": "voterAddress",
          "type": "address"
        }
      ],
      "name": "VoterRegistered",
      "type": "event"
    },
    {
      "anonymous": false,
      "inputs": [
        {
          "indexed": false,
          "internalType": "enum Voting.WorkflowStatus",
          "name": "previousStatus",
          "type": "uint8"
        },
        {
          "indexed": false,
          "internalType": "enum Voting.WorkflowStatus",
          "name": "newStatus",
          "type": "uint8"
        }
      ],
      "name": "WorkflowStatusChange",
      "type": "event"
    },
    {
      "inputs": [
        {
          "internalType": "uint256",
          "name": "",
          "type": "uint256"
        }
      ],
      "name": "addressUsed",
      "outputs": [
        {
          "internalType": "address",
          "name": "",
          "type": "address"
        }
      ],
      "stateMutability": "view",
      "type": "function",
      "constant": true
    },
    {
      "inputs": [],
      "name": "owner",
      "outputs": [
        {
          "internalType": "address",
          "name": "",
          "type": "address"
        }
      ],
      "stateMutability": "view",
      "type": "function",
      "constant": true
    },
    {
      "inputs": [
        {
          "internalType": "uint256",
          "name": "",
          "type": "uint256"
        }
      ],
      "name": "proposals",
      "outputs": [
        {
          "internalType": "string",
          "name": "description",
          "type": "string"
        },
        {
          "internalType": "uint256",
          "name": "voteCount",
          "type": "uint256"
        }
      ],
      "stateMutability": "view",
      "type": "function",
      "constant": true
    },
    {
      "inputs": [],
      "name": "renounceOwnership",
      "outputs": [],
      "stateMutability": "nonpayable",
      "type": "function"
    },
    {
      "inputs": [],
      "name": "status",
      "outputs": [
        {
          "internalType": "enum Voting.WorkflowStatus",
          "name": "",
          "type": "uint8"
        }
      ],
      "stateMutability": "view",
      "type": "function",
      "constant": true
    },
    {
      "inputs": [
        {
          "internalType": "address",
          "name": "newOwner",
          "type": "address"
        }
      ],
      "name": "transferOwnership",
      "outputs": [],
      "stateMutability": "nonpayable",
      "type": "function"
    },
    {
      "inputs": [],
      "name": "winningProposalId",
      "outputs": [
        {
          "internalType": "uint256",
          "name": "",
          "type": "uint256"
        }
      ],
      "stateMutability": "view",
      "type": "function",
      "constant": true
    },
    {
      "inputs": [
        {
          "internalType": "address",
          "name": "_address",
          "type": "address"
        }
      ],
      "name": "whitelist",
      "outputs": [],
      "stateMutability": "nonpayable",
      "type": "function"
    },
    {
      "inputs": [],
      "name": "getWhitelist",
      "outputs": [
        {
          "internalType": "address[]",
          "name": "",
          "type": "address[]"
        }
      ],
      "stateMutability": "view",
      "type": "function",
      "constant": true
    },
    {
      "inputs": [],
      "name": "proposalsReset",
      "outputs": [],
      "stateMutability": "nonpayable",
      "type": "function"
    },
    {
      "inputs": [],
      "name": "whitelistReset",
      "outputs": [],
      "stateMutability": "nonpayable",
      "type": "function"
    },
    {
      "inputs": [
        {
          "internalType": "uint256",
          "name": "_proposalId",
          "type": "uint256"
        }
      ],
      "name": "voterRegister",
      "outputs": [],
      "stateMutability": "nonpayable",
      "type": "function"
    },
    {
      "inputs": [],
      "name": "getWinningProposal",
      "outputs": [
        {
          "internalType": "string",
          "name": "",
          "type": "string"
        }
      ],
      "stateMutability": "view",
      "type": "function",
      "constant": true
    },
    {
      "inputs": [
        {
          "internalType": "string",
          "name": "_description",
          "type": "string"
        }
      ],
      "name": "proposalRegister",
      "outputs": [],
      "stateMutability": "nonpayable",
      "type": "function"
    },
    {
      "inputs": [],
      "name": "getProposals",
      "outputs": [
        {
          "components": [
            {
              "internalType": "string",
              "name": "description",
              "type": "string"
            },
            {
              "internalType": "uint256",
              "name": "voteCount",
              "type": "uint256"
            }
          ],
          "internalType": "struct Voting.Proposal[]",
          "name": "",
          "type": "tuple[]"
        }
      ],
      "stateMutability": "view",
      "type": "function",
      "constant": true
    },
    {
      "inputs": [],
      "name": "updateStatus",
      "outputs": [],
      "stateMutability": "nonpayable",
      "type": "function"
    },
    {
      "inputs": [],
      "name": "getStatus",
      "outputs": [
        {
          "internalType": "enum Voting.WorkflowStatus",
          "name": "",
          "type": "uint8"
        }
      ],
      "stateMutability": "view",
      "type": "function",
      "constant": true
    }
  ],
  "bytecode": "0x6080604052600180556000600560006101000a81548160ff0219169083600581111562000031576200003062000136565b5b02179055503480156200004357600080fd5b5062000064620000586200006a60201b60201c565b6200007260201b60201c565b62000165565b600033905090565b60008060009054906101000a900473ffffffffffffffffffffffffffffffffffffffff169050816000806101000a81548173ffffffffffffffffffffffffffffffffffffffff021916908373ffffffffffffffffffffffffffffffffffffffff1602179055508173ffffffffffffffffffffffffffffffffffffffff168173ffffffffffffffffffffffffffffffffffffffff167f8be0079c531659141344cd1fd0a4f28419497f9722a3daafe3b4186f6b6457e060405160405180910390a35050565b7f4e487b7100000000000000000000000000000000000000000000000000000000600052602160045260246000fd5b611e0f80620001756000396000f3fe608060405234801561001057600080fd5b506004361061010b5760003560e01c8063715018a6116100a2578063c143bb2d11610071578063c143bb2d1461024b578063c64963c514610267578063d01f63f514610285578063e8f7d8f6146102a3578063f2fde38b146102bf5761010b565b8063715018a6146101e95780638da5cb5b146101f35780639b19251a14610211578063a51346201461022d5761010b565b806353f40068116100de57806353f40068146101875780635d738fb7146101915780635f60f485146101c157806362564c48146101cb5761010b565b8063013cf08b14610110578063200d2ed214610141578063424aade71461015f5780634e69d56014610169575b600080fd5b61012a600480360381019061012591906114a8565b6102db565b60405161013892919061157d565b60405180910390f35b610149610397565b6040516101569190611624565b60405180910390f35b6101676103aa565b005b610171610586565b60405161017e9190611624565b60405180910390f35b61018f61059d565b005b6101ab60048036038101906101a691906114a8565b610669565b6040516101b89190611680565b60405180910390f35b6101c96106a8565b005b6101d3610885565b6040516101e091906117f3565b60405180910390f35b6101f1610980565b005b6101fb610a08565b6040516102089190611680565b60405180910390f35b61022b60048036038101906102269190611841565b610a31565b005b610235610c38565b604051610242919061186e565b60405180910390f35b610265600480360381019061026091906119c5565b610cef565b005b61026f610e46565b60405161027c9190611a0e565b60405180910390f35b61028d610e4c565b60405161029a9190611ae7565b60405180910390f35b6102bd60048036038101906102b891906114a8565b610eda565b005b6102d960048036038101906102d49190611841565b611143565b005b600481815481106102eb57600080fd5b906000526020600020906002020160009150905080600001805461030e90611b38565b80601f016020809104026020016040519081016040528092919081815260200182805461033a90611b38565b80156103875780601f1061035c57610100808354040283529160200191610387565b820191906000526020600020905b81548152906001019060200180831161036a57829003601f168201915b5050505050908060010154905082565b600560009054906101000a900460ff1681565b6103b261123b565b73ffffffffffffffffffffffffffffffffffffffff166103d0610a08565b73ffffffffffffffffffffffffffffffffffffffff1614610426576040517f08c379a000000000000000000000000000000000000000000000000000000000815260040161041d90611bb6565b60405180910390fd5b6000600581111561043a576104396115ad565b5b600560009054906101000a900460ff16600581111561045c5761045b6115ad565b5b1461046657600080fd5b60005b600380549050811015610575576040518060600160405280600015158152602001600015158152602001600081525060026000600384815481106104b0576104af611bd6565b5b9060005260206000200160009054906101000a900473ffffffffffffffffffffffffffffffffffffffff1673ffffffffffffffffffffffffffffffffffffffff1673ffffffffffffffffffffffffffffffffffffffff16815260200190815260200160002060008201518160000160006101000a81548160ff02191690831515021790555060208201518160000160016101000a81548160ff02191690831515021790555060408201518160010155905050808061056d90611c34565b915050610469565b50600360006105849190611307565b565b6000600560009054906101000a900460ff16905090565b6105a561123b565b73ffffffffffffffffffffffffffffffffffffffff166105c3610a08565b73ffffffffffffffffffffffffffffffffffffffff1614610619576040517f08c379a000000000000000000000000000000000000000000000000000000000815260040161061090611bb6565b60405180910390fd5b6000600581111561062d5761062c6115ad565b5b600560009054906101000a900460ff16600581111561064f5761064e6115ad565b5b1461065957600080fd5b600460006106679190611328565b565b6003818154811061067957600080fd5b906000526020600020016000915054906101000a900473ffffffffffffffffffffffffffffffffffffffff1681565b6106b061123b565b73ffffffffffffffffffffffffffffffffffffffff166106ce610a08565b73ffffffffffffffffffffffffffffffffffffffff1614610724576040517f08c379a000000000000000000000000000000000000000000000000000000000815260040161071b90611bb6565b60405180910390fd5b60058060009054906101000a900460ff166005811115610747576107466115ad565b5b60ff1614610797576001600560009054906101000a900460ff166005811115610773576107726115ad565b5b61077d9190611c8a565b60ff166005811115610792576107916115ad565b5b61079a565b60005b600560006101000a81548160ff021916908360058111156107be576107bd6115ad565b5b0217905550600080600560009054906101000a900460ff1660058111156107e8576107e76115ad565b5b14610820576001600560009054906101000a900460ff166005811115610811576108106115ad565b5b61081b9190611cc1565b610823565b60055b90507f0a97a4ee45751e2abf3e4fc8946939630b11b371ea8ae39ccdc3056e98f5cc3f8160ff16600581111561085c5761085b6115ad565b5b600560009054906101000a900460ff1660405161087a929190611cf5565b60405180910390a150565b60606004805480602002602001604051908101604052809291908181526020016000905b8282101561097757838290600052602060002090600202016040518060400160405290816000820180546108dc90611b38565b80601f016020809104026020016040519081016040528092919081815260200182805461090890611b38565b80156109555780601f1061092a57610100808354040283529160200191610955565b820191906000526020600020905b81548152906001019060200180831161093857829003601f168201915b50505050508152602001600182015481525050815260200190600101906108a9565b50505050905090565b61098861123b565b73ffffffffffffffffffffffffffffffffffffffff166109a6610a08565b73ffffffffffffffffffffffffffffffffffffffff16146109fc576040517f08c379a00000000000000000000000000000000000000000000000000000000081526004016109f390611bb6565b60405180910390fd5b610a066000611243565b565b60008060009054906101000a900473ffffffffffffffffffffffffffffffffffffffff16905090565b610a3961123b565b73ffffffffffffffffffffffffffffffffffffffff16610a57610a08565b73ffffffffffffffffffffffffffffffffffffffff1614610aad576040517f08c379a0000000000000000000000000000000000000000000000000000000008152600401610aa490611bb6565b60405180910390fd5b60006005811115610ac157610ac06115ad565b5b600560009054906101000a900460ff166005811115610ae357610ae26115ad565b5b14610aed57600080fd5b60405180606001604052806001151581526020016000151581526020016000815250600260008373ffffffffffffffffffffffffffffffffffffffff1673ffffffffffffffffffffffffffffffffffffffff16815260200190815260200160002060008201518160000160006101000a81548160ff02191690831515021790555060208201518160000160016101000a81548160ff021916908315150217905550604082015181600101559050506003819080600181540180825580915050600190039060005260206000200160009091909190916101000a81548173ffffffffffffffffffffffffffffffffffffffff021916908373ffffffffffffffffffffffffffffffffffffffff1602179055507fb6be2187d059cc2a55fe29e0e503b566e1e0f8c8780096e185429350acffd3dd81604051610c2d9190611680565b60405180910390a150565b6060600460065481548110610c5057610c4f611bd6565b5b90600052602060002090600202016000018054610c6c90611b38565b80601f0160208091040260200160405190810160405280929190818152602001828054610c9890611b38565b8015610ce55780601f10610cba57610100808354040283529160200191610ce5565b820191906000526020600020905b815481529060010190602001808311610cc857829003601f168201915b5050505050905090565b33600260008273ffffffffffffffffffffffffffffffffffffffff1673ffffffffffffffffffffffffffffffffffffffff16815260200190815260200160002060000160009054906101000a900460ff16610d4957600080fd5b60016005811115610d5d57610d5c6115ad565b5b600560009054906101000a900460ff166005811115610d7f57610d7e6115ad565b5b14610d8957600080fd5b61271060048054905010610d9c57600080fd5b60046040518060400160405280848152602001600081525090806001815401808255809150506001900390600052602060002090600202016000909190919091506000820151816000019080519060200190610df992919061134c565b506020820151816001015550507f92e393e9b54e2f801d3ea4beb0c5e71a21cc34a5d34b77d0fb8a3aa1650dc18f600480549050604051610e3a9190611a0e565b60405180910390a15050565b60065481565b60606003805480602002602001604051908101604052809291908181526020018280548015610ed057602002820191906000526020600020905b8160009054906101000a900473ffffffffffffffffffffffffffffffffffffffff1673ffffffffffffffffffffffffffffffffffffffff1681526020019060010190808311610e86575b5050505050905090565b33600260008273ffffffffffffffffffffffffffffffffffffffff1673ffffffffffffffffffffffffffffffffffffffff16815260200190815260200160002060000160009054906101000a900460ff16610f3457600080fd5b60036005811115610f4857610f476115ad565b5b600560009054906101000a900460ff166005811115610f6a57610f696115ad565b5b148015610fc45750600260003373ffffffffffffffffffffffffffffffffffffffff1673ffffffffffffffffffffffffffffffffffffffff16815260200190815260200160002060000160019054906101000a900460ff16155b610fcd57600080fd5b6001600260003373ffffffffffffffffffffffffffffffffffffffff1673ffffffffffffffffffffffffffffffffffffffff16815260200190815260200160002060000160016101000a81548160ff02191690831515021790555081600260003373ffffffffffffffffffffffffffffffffffffffff1673ffffffffffffffffffffffffffffffffffffffff168152602001908152602001600020600101819055506004828154811061108357611082611bd6565b5b906000526020600020906002020160010160008154809291906110a590611c34565b91905055506004600654815481106110c0576110bf611bd6565b5b906000526020600020906002020160010154600483815481106110e6576110e5611bd6565b5b906000526020600020906002020160010154111561110657816006819055505b7f4d99b957a2bc29a30ebd96a7be8e68fe50a3c701db28a91436490b7d53870ca43383604051611137929190611d1e565b60405180910390a15050565b61114b61123b565b73ffffffffffffffffffffffffffffffffffffffff16611169610a08565b73ffffffffffffffffffffffffffffffffffffffff16146111bf576040517f08c379a00000000000000000000000000000000000000000000000000000000081526004016111b690611bb6565b60405180910390fd5b600073ffffffffffffffffffffffffffffffffffffffff168173ffffffffffffffffffffffffffffffffffffffff16141561122f576040517f08c379a000000000000000000000000000000000000000000000000000000000815260040161122690611db9565b60405180910390fd5b61123881611243565b50565b600033905090565b60008060009054906101000a900473ffffffffffffffffffffffffffffffffffffffff169050816000806101000a81548173ffffffffffffffffffffffffffffffffffffffff021916908373ffffffffffffffffffffffffffffffffffffffff1602179055508173ffffffffffffffffffffffffffffffffffffffff168173ffffffffffffffffffffffffffffffffffffffff167f8be0079c531659141344cd1fd0a4f28419497f9722a3daafe3b4186f6b6457e060405160405180910390a35050565b508054600082559060005260206000209081019061132591906113d2565b50565b508054600082556002029060005260206000209081019061134991906113ef565b50565b82805461135890611b38565b90600052602060002090601f01602090048101928261137a57600085556113c1565b82601f1061139357805160ff19168380011785556113c1565b828001600101855582156113c1579182015b828111156113c05782518255916020019190600101906113a5565b5b5090506113ce91906113d2565b5090565b5b808211156113eb5760008160009055506001016113d3565b5090565b5b8082111561141a5760008082016000611409919061141e565b6001820160009055506002016113f0565b5090565b50805461142a90611b38565b6000825580601f1061143c575061145b565b601f01602090049060005260206000209081019061145a91906113d2565b5b50565b6000604051905090565b600080fd5b600080fd5b6000819050919050565b61148581611472565b811461149057600080fd5b50565b6000813590506114a28161147c565b92915050565b6000602082840312156114be576114bd611468565b5b60006114cc84828501611493565b91505092915050565b600081519050919050565b600082825260208201905092915050565b60005b8381101561150f5780820151818401526020810190506114f4565b8381111561151e576000848401525b50505050565b6000601f19601f8301169050919050565b6000611540826114d5565b61154a81856114e0565b935061155a8185602086016114f1565b61156381611524565b840191505092915050565b61157781611472565b82525050565b600060408201905081810360008301526115978185611535565b90506115a6602083018461156e565b9392505050565b7f4e487b7100000000000000000000000000000000000000000000000000000000600052602160045260246000fd5b600681106115ed576115ec6115ad565b5b50565b60008190506115fe826115dc565b919050565b600061160e826115f0565b9050919050565b61161e81611603565b82525050565b60006020820190506116396000830184611615565b92915050565b600073ffffffffffffffffffffffffffffffffffffffff82169050919050565b600061166a8261163f565b9050919050565b61167a8161165f565b82525050565b60006020820190506116956000830184611671565b92915050565b600081519050919050565b600082825260208201905092915050565b6000819050602082019050919050565b600082825260208201905092915050565b60006116e3826114d5565b6116ed81856116c7565b93506116fd8185602086016114f1565b61170681611524565b840191505092915050565b61171a81611472565b82525050565b6000604083016000830151848203600086015261173d82826116d8565b91505060208301516117526020860182611711565b508091505092915050565b60006117698383611720565b905092915050565b6000602082019050919050565b60006117898261169b565b61179381856116a6565b9350836020820285016117a5856116b7565b8060005b858110156117e157848403895281516117c2858261175d565b94506117cd83611771565b925060208a019950506001810190506117a9565b50829750879550505050505092915050565b6000602082019050818103600083015261180d818461177e565b905092915050565b61181e8161165f565b811461182957600080fd5b50565b60008135905061183b81611815565b92915050565b60006020828403121561185757611856611468565b5b60006118658482850161182c565b91505092915050565b600060208201905081810360008301526118888184611535565b905092915050565b600080fd5b600080fd5b7f4e487b7100000000000000000000000000000000000000000000000000000000600052604160045260246000fd5b6118d282611524565b810181811067ffffffffffffffff821117156118f1576118f061189a565b5b80604052505050565b600061190461145e565b905061191082826118c9565b919050565b600067ffffffffffffffff8211156119305761192f61189a565b5b61193982611524565b9050602081019050919050565b82818337600083830152505050565b600061196861196384611915565b6118fa565b90508281526020810184848401111561198457611983611895565b5b61198f848285611946565b509392505050565b600082601f8301126119ac576119ab611890565b5b81356119bc848260208601611955565b91505092915050565b6000602082840312156119db576119da611468565b5b600082013567ffffffffffffffff8111156119f9576119f861146d565b5b611a0584828501611997565b91505092915050565b6000602082019050611a23600083018461156e565b92915050565b600081519050919050565b600082825260208201905092915050565b6000819050602082019050919050565b611a5e8161165f565b82525050565b6000611a708383611a55565b60208301905092915050565b6000602082019050919050565b6000611a9482611a29565b611a9e8185611a34565b9350611aa983611a45565b8060005b83811015611ada578151611ac18882611a64565b9750611acc83611a7c565b925050600181019050611aad565b5085935050505092915050565b60006020820190508181036000830152611b018184611a89565b905092915050565b7f4e487b7100000000000000000000000000000000000000000000000000000000600052602260045260246000fd5b60006002820490506001821680611b5057607f821691505b60208210811415611b6457611b63611b09565b5b50919050565b7f4f776e61626c653a2063616c6c6572206973206e6f7420746865206f776e6572600082015250565b6000611ba06020836114e0565b9150611bab82611b6a565b602082019050919050565b60006020820190508181036000830152611bcf81611b93565b9050919050565b7f4e487b7100000000000000000000000000000000000000000000000000000000600052603260045260246000fd5b7f4e487b7100000000000000000000000000000000000000000000000000000000600052601160045260246000fd5b6000611c3f82611472565b91507fffffffffffffffffffffffffffffffffffffffffffffffffffffffffffffffff821415611c7257611c71611c05565b5b600182019050919050565b600060ff82169050919050565b6000611c9582611c7d565b9150611ca083611c7d565b92508260ff03821115611cb657611cb5611c05565b5b828201905092915050565b6000611ccc82611c7d565b9150611cd783611c7d565b925082821015611cea57611ce9611c05565b5b828203905092915050565b6000604082019050611d0a6000830185611615565b611d176020830184611615565b9392505050565b6000604082019050611d336000830185611671565b611d40602083018461156e565b9392505050565b7f4f776e61626c653a206e6577206f776e657220697320746865207a65726f206160008201527f6464726573730000000000000000000000000000000000000000000000000000602082015250565b6000611da36026836114e0565b9150611dae82611d47565b604082019050919050565b60006020820190508181036000830152611dd281611d96565b905091905056fea2646970667358221220fd815bb3f1d12bdfdb057c4072889e325c0f87288ece8b0ca6ffc89bf5b43ed964736f6c634300080b0033",
  "immutableReferences": {},
  "source": "// SPDX-License-Identifier: MIT\npragma solidity 0.8.11;\n\nimport \"@openzeppelin/contracts/access/Ownable.sol\";\n\ncontract Voting is Ownable {\n    struct Voter {\n        bool isRegistered;\n        bool hasVoted;\n        uint votedProposalId;\n    }\n\n    struct Proposal {\n        string description;\n        uint voteCount;\n    }\n   \n    enum WorkflowStatus {\n        RegisteringVoters,\n        ProposalsRegistrationStarted,\n        ProposalsRegistrationEnded,\n        VotingSessionStarted,\n        VotingSessionEnded,\n        VotesTallied\n    }\n   \n    uint proposalId = 1;\n    mapping(address => Voter) private _whitelist;\n    address[] public addressUsed;\n    Proposal[] public proposals;\n    WorkflowStatus public status = WorkflowStatus.RegisteringVoters;\n    uint public winningProposalId;\n   \n    event VoterRegistered(address voterAddress);\n    event ProposalRegistered(uint proposalId);\n    event Voted (address voter, uint proposalId);\n    event WorkflowStatusChange(WorkflowStatus previousStatus, WorkflowStatus newStatus);\n   \n    //modifier\n    modifier isRegisteringVotersStatus() {\n        require (status == WorkflowStatus.RegisteringVoters);\n        _;\n    }\n\n    modifier isRegisteredUser(address _address) {\n        require (_whitelist[_address].isRegistered);\n        _;\n    }\n   \n    //functions  \n    function whitelist(address _address) public onlyOwner isRegisteringVotersStatus {      \n        _whitelist[_address] = Voter(true, false, 0);\n        addressUsed.push(_address);\n\n        emit VoterRegistered(_address);\n    }\n\n    // ajout migrate pour deploy\n    function getWhitelist() public view returns(address[] memory) {\n       return addressUsed;\n    }\n\n    function proposalsReset() public onlyOwner isRegisteringVotersStatus{\n        delete proposals;\n    }\n\n    function whitelistReset() public onlyOwner isRegisteringVotersStatus{\n        for(uint i=0; i<addressUsed.length; i++){\n            _whitelist[addressUsed[i]] = Voter(false, false, 0);\n        }\n        delete addressUsed;\n    }\n   \n    function voterRegister(uint _proposalId) public isRegisteredUser(msg.sender) {\n        require (status == WorkflowStatus.VotingSessionStarted\n            && !_whitelist[msg.sender].hasVoted);\n        _whitelist[msg.sender].hasVoted = true;\n        _whitelist[msg.sender].votedProposalId = _proposalId;\n       \n        proposals[_proposalId].voteCount++;\n       \n        if (proposals[_proposalId].voteCount > proposals[winningProposalId].voteCount) {\n            winningProposalId = _proposalId;\n        }\n        emit Voted(msg.sender, _proposalId);\n    }\n\n    function getWinningProposal() public view returns(string memory) {\n        return proposals[winningProposalId].description;\n    }\n   \n    // Registering proposals of voters \n    function proposalRegister(string memory _description) public isRegisteredUser(msg.sender) {\n        require (status == WorkflowStatus.ProposalsRegistrationStarted);\n        require (proposals.length < 10000);\n        proposals.push(Proposal(_description, 0));\n        emit ProposalRegistered(proposals.length);\n    }\n\n    function getProposals() public view returns(Proposal[] memory) {\n       return proposals;\n    }\n   \n   // update status \n    function updateStatus() public onlyOwner {\n        status = uint8(status) == 5 ? WorkflowStatus.RegisteringVoters : WorkflowStatus(uint8(status)+1);\n        uint8 idPreviousStatus = uint(status) == 0 ? 5 : (uint8(status)-1);\n        emit WorkflowStatusChange(WorkflowStatus(idPreviousStatus), status);\n    }\n\n    function getStatus() public view returns(WorkflowStatus) {\n       return status;\n    }\n}",
  "sourcePath": "/home/kevin/blockChain/whitelist-system-with-heroku/contracts/Voting.sol",
  "compiler": {
    "name": "solc",
    "version": "0.8.11+commit.d7f03943.Emscripten.clang"
  },
  "schemaVersion": "3.4.4",
  "updatedAt": "2022-03-21T21:54:48.054Z",
  "networkType": "ethereum",
  "devdoc": {
    "kind": "dev",
    "methods": {
      "owner()": {
        "details": "Returns the address of the current owner."
      },
      "renounceOwnership()": {
        "details": "Leaves the contract without owner. It will not be possible to call `onlyOwner` functions anymore. Can only be called by the current owner. NOTE: Renouncing ownership will leave the contract without an owner, thereby removing any functionality that is only available to the owner."
      },
      "transferOwnership(address)": {
        "details": "Transfers ownership of the contract to a new account (`newOwner`). Can only be called by the current owner."
      }
    },
    "version": 1
  },
  "userdoc": {
    "kind": "user",
    "methods": {},
    "version": 1
  }
}